:020000040800F2
:100000009805002045010008490100084B0100083F
:100010004D0100084F0100085101000800000000D8
:100020000000000000000000000000005301000874
:1000300055010008000000005701000859010008A0
:100040005B0100085B0100085B0100085B01000820
:100050005B0100085B0100085B0100085B01000810
:100060005B0100085B0100085B0100085B01000800
:100070005B0100085B0100085B0100085B010008F0
:100080005B0100085B0100085B0100085B010008E0
:100090005B0100085B0100085B0100085B010008D0
:1000A0005B0100085B0100085B0100085B010008C0
:1000B0005B0100085B0100085B0100085B010008B0
:1000C0005B0100085B0100085B0100085B010008A0
:1000D0005B010008F10F00085B0100085B010008EC
:1000E0005B0100085B0100085B0100085B01000880
:1000F0005B0100085B0100085B0100085B01000870
:100100005B0100085B0100085B0100085B0100085F
:100110005B0100085B0100085B0100085B0100084F
:100120005B0100085B0100085B0100085B0100083F
:10013000DFF80CD000F0ECFB004800473915000850
:100140009805002005480047FEE7FEE7FEE7FEE7CA
:10015000FEE7FEE7FEE7FEE7FEE7FEE73101000807
:100160000649074A0868504343F2390210440860C0
:1001700040087047014908607047000018000020DF
:100180006D4EC641F0B480EA0102D40F4200B2EBDA
:10019000410F02D20246084611464A0042D0C30D22
:1001A000DDB2C1F3C752AD1A202D35DAC1F3160105
:1001B00041F4000204B15242C5F1200602FA06F1F0
:1001C0002A411044B3EBD05F23D0C4B1012DA0EB82
:1001D000C35009DCF0BC4FF0004202EAC352DBB26C
:1001E00000F5000000F06ABA400000F1807000EBFA
:1001F000C350A0F1807040EAD170490009E049087D
:1002000041EAC071A0EBC35000F50000400800EBCC
:10021000C350F0BC00F049BA6142012202EB410137
:10022000001BF6E7F0BC704781F00041AAE780F0C0
:100230000040A7E780EA010210B502F00043400049
:1002400022D04A001FD0010E01EB1261C0F356000C
:10025000C2F3560240F4000042F40002A0FB022068
:1002600000047F39140400D0401C50EA124001D42D
:100270004000491EC2B20C0604EBD010401C4008DE
:10028000802A02D003E0002010BD20F001000029E8
:1002900000DA0020184310BD30B480EA010202F0F9
:1002A000004530F0004221F0004013D090B1C30D62
:1002B000D40DC2F31601C0F31600E41A41F4000194
:1002C00040F400027D34914201D3641C00E04900F7
:1002D000002C02DA30BC002070474FF400000023ED
:1002E000914201D3891A034340084FEA4101F7D1F3
:1002F00051B1914202D14FF0004105E002D24FF0DE
:10030000010101E06FF0010103EBC450284430BC4F
:1003100000F0CBB92DE9FE4F804681EA0300C00F03
:100320000C46009021F0004123F00045B8EB02009C
:10033000A94105D24046214690461C460B4602463E
:1003400023F00040104347D0270DC7F30A00C3F342
:100350000A510290401A019040286BDAC3F313004F
:1003600040F4801B0098924620B10023D2EB030A90
:1003700063EB0B0B01985946C0F14002504600F068
:1003800063F906460D4650465946019A00F07BF93E
:1003900010EB08006141002487EA115284EAE773F8
:1003A0001A4340D0009A62B3019A012A4FEA0752D9
:1003B00015DC001B61EB02014FF0004202EA07521C
:1003C000CDE90042001C41F5801132462B4600F079
:1003D000B2F903B0BDE8F08F40462146F9E7001BB3
:1003E00061EB0201001C41F5801300185B412018ED
:1003F000A2F5001747EB030140EAD570B6196D412D
:1004000011E06D084FEA360645EAC0754FEA07521B
:10041000001B61EB0201001C41F5801149084FEA05
:1004200030000019514132462B4603B0BDE8F04F71
:1004300000F072B90098012240000023D0EB0202C4
:1004400063EBE073009821464FEAE074B8EB0000DC
:1004500061EB0401E9E783F000435BE781F00041D1
:1004600058E72DE9FE4F81EA030404F0004421F02F
:10047000004100944FF0000B23F0004350EA0104C8
:100480005ED052EA03045BD0C3F30A54C1F30A55A9
:100490002C44A4F2F3340194A0FB0254C1F31301E1
:1004A00041F48011C3F3130343F4801301FB0244AE
:1004B00000FB034E840A970A44EA815447EA8357B3
:1004C000A4FB076802958D0A05FB07854FEA932C6C
:1004D00004FB0C542705029D4FEA065847EA1637DD
:1004E000B5EB08056EEB070C870E920E47EA8117F5
:1004F00042EA8312A7FB0201B6EB0B0164EB000496
:100500002B0D43EA0C335E1844EB1C50DA4651467F
:10051000E7FB0201C5F313044FEA0B3343EA14531C
:100520004FEA0432019C43EA0603A4F10C0402944E
:10053000009CCDE900B400F0FEF803B0BDE8F08FF8
:1005400000200146F9E796230022114600F0B6B8D4
:100550000EB5C10F80EAE0700844CA07002140F2DE
:1005600033438DE80E000A460B4600F0E4F803B072
:1005700000BD0EB540F2334102910021CDE90011DA
:100580000A460B4600F0D7F803B000BD20F000404B
:10059000C10DC0F3160040F400007F2901DA0020ED
:1005A0007047962903DCC1F19601C840704796391F
:1005B00088407047C1F30A5210B5C1F3130140F2ED
:1005C000FF3341F480119A4201DA002010BD40F25D
:1005D00033439A42A2F2334203DC524200F043F822
:1005E00010BD904010BD2DE9F05F054600209246F9
:1005F0009B4688460646814640241BE028464146E5
:100600004746224600F02FF853465A46C01A9141F9
:1006100010D311461846224600F016F82D1A67EB43
:1006200001084F4622460120002100F00DF817EB8B
:1006300000094E41201EA4F10104DFDC484631468A
:100640002A464346BDE8F09F202A04DB203A00FA00
:1006500002F1002070479140C2F1200320FA03F319
:10066000194390407047202A04DB203A21FA02F017
:100670000021704721FA02F3D040C2F120029140DC
:10068000084319467047202A06DBCB17203A41FA67
:1006900002F043EAE07306E041FA02F3D040C2F10F
:1006A000200291400843194670470029A8BF7047AF
:1006B000401C490008BF20F00100704710B4B0FA98
:1006C00080FC00FA0CF050EA010404BF10BC704733
:1006D00049B1CCF1200421FA04F411FA0CF118BF4D
:1006E000012121430843A3EB0C01CB1D4FEA00611C
:1006F0004FEA102042BF002010BC704700EBC350EF
:1007000010440029A4BF10BC7047401C490008BF1A
:1007100020F0010010BC704710B5141E73F10004E6
:1007200008DA401C41F1000192185B411A4301D1E3
:1007300020F0010010BD2DE9F04D92469B4611B10D
:10074000B1FA81F202E0B0FA80F220329046FFF76F
:100750007BFF04460F4640EA0A0041EA0B0153467C
:100760005A46084313D0114653EA010019D0C8F184
:1007700040025046FFF777FF05460E465046594661
:100780004246FFF761FF084305D0012004E0204600
:100790003946BDE8F08D0020054346EAE0762C435B
:1007A00037430A986305E40AA0EB08000022FD0A1B
:1007B00044EA47540A3002D500200146E9E7010522
:1007C00010196941DDE9084500196941BDE8F04D9E
:1007D000A2E72DE9F04D81EA030404F0004B21F07B
:1007E000004514464FF0000A23F0004150EA05028C
:1007F00020D054EA01021DD0C5F30A570246C5F3C2
:100800001303C1F31300C1F30A5640F4801543F4F7
:100810008013A7EB0608101BD64608F2FD3873EBD1
:10082000050002D308F1010801E092185B41B8F11C
:10083000000F03DA00200146BDE8F08D00204FF4E0
:100840008011064684460EE0171B73EB050705D39F
:10085000121B63EB050306434CEA010C49084FEAFF
:10086000300092185B4150EA0107EDD152EA0300D3
:1008700012D082EA040083EA0501084305D0101B68
:10088000AB4106D20122002306E000224FF00043D4
:1008900002E06FF0010253101AEB06004CEB085116
:1008A00010EB0A0041EB0B01BDE8F04DFFF734BF40
:1008B00070B521F0004303430CD0C1F30A55002466
:1008C000D5EB040564EB0403D617AD1AB34102DB84
:1008D0000020014670BD201841EB025170BD0000A0
:1008E00030B5041E71F1000404DB4FF000444042B7
:1008F00064EB0101141E73F1000405DB1C464FF08C
:100900000043524263EB0403994208BF904230BD5A
:10091000064C074D06E0E06840F0010394E807004C
:1009200098471034AC42F6D3FFF706FC982600082F
:10093000B82600082DE9F04D00231A461B1A8A41FB
:1009400003DB00200146BDE8F08DC1F30A52C1F37C
:10095000130141F480154FF0000BD10702D10018AC
:100960006D41521E0027044640F2FF11384601EB4C
:10097000620A3E468046024600204FF48011FFF78F
:1009800072FEC2197141BB1846EB0100B4EB030CB7
:1009900075EB000C04D3E41A65EB000517460E4610
:1009A000241908F101006D4180463428E3DDF9196E
:1009B00046EB0600091BA84103D24FF0FF32134655
:1009C00001E0002213461BEB070046EB0A51BDE88D
:1009D000F04DFFF7A1BE000070B505460E46144667
:1009E0002946204600F03CF80748046007480660A6
:1009F00001200749086000F059F800F03BF800209A
:100A00000449C1F8A40170BD0C00002010000020B2
:100A1000A40122420000224210B50246002018E044
:100A2000002112E0130103EB80030B440A4CE35C4A
:100A30000A4C246804EB8004645C6340074C24681F
:100A400004EB800463544B1CD9B20429EADB431C39
:100A5000D8B20428E4DB10BDE80000200C00002020
:100A60000246002003E00B5C1354431CD8B210284C
:100A7000F9DB704710B500240020FFF7CDFF0124FB
:100A80000AE000F099FA00F003FA00F06DF9204650
:100A9000FFF7C2FF601CC4B20A2CF2DB00F08CFA34
:100AA00000F0F6F90A20FFF7B7FF10BDF8B50024F3
:100AB00029E0002000EB840052490968085C00210D
:100AC00001EB8401504A5054012000EB84004D4951
:100AD0000968085C012101EB84015054022000EBFD
:100AE000840048490968085C022101EB84015054E4
:100AF000032000EB840043490968085C032101EBF3
:100B000084015054641C042CD3D378E0002507E002
:100B1000601E05EB80003C49085C0DF805006D1C6B
:100B2000042DF5D304F0030088BB9DF800609DF808
:100B300001008DF800009DF802008DF801009DF87D
:100B400003008DF802008DF803609DF8000000F0AE
:100B5000EDFC8DF800009DF8010000F0E7FC8DF839
:100B600001009DF8020000F0E1FC8DF802009DF804
:100B7000030000F0DBFC8DF803009DF80000234922
:100B800001EB9401097848408DF8000001E0FFE78F
:100B900000BF201F002101EB80001B49085C9DF86D
:100BA00000104840002101EB8401174A5054201FD7
:100BB000012101EB80001146085C9DF801104840BE
:100BC000012101EB84015054201F022101EB800020
:100BD0001146085C9DF802104840022101EB840197
:100BE0005054201F032101EB80001146085C9DF842
:100BF00003104840032101EB84015054641C2C2C49
:100C000084D3F8BD10000020E8000020042500086F
:100C10000B48806940F01000094988610948406824
:100C200020F0F000074948600846406840F0300076
:100C300048600548006840F4007003490860704748
:100C400000100240001001400C08014000B50020D7
:100C500015490861C8601420486100208861C86196
:100C60000846006840F001000860084640680F49E7
:100C700008400D494860084600680D4908400A4987
:100C800008600846006820F4802008600846406834
:100C900020F4FE0048600020886000214FF00060D2
:100CA00000F058F800BD0000001002400000FFF8FE
:100CB000FFFFF6FE2DE9F0410746884614461D4623
:100CC000284600F033F8C5F1040007FA00F60F20BB
:100CD000284100EA0800064306F00F06E21704EB7D
:100CE000D2625211920002F1E022D2F80021214694
:100CF000E31704EBD3635B11A4EB431C012303FA5A
:100D00000CF31A432046E31704EBD3635B119B00FB
:100D100003F1E023C3F800210348005D40EA061018
:100D200001490855BDE8F08100E400E001460723D1
:100D300023EA01021202054B18684FF6FF03184020
:100D4000034B18431043014B186070470CED00E053
:100D50000000FA05024A0A400243024B1A6070473B
:100D600080FFFF1F08ED00E02DE9F041002488E03E
:100D70004648006810F824704448006810F82400C1
:100D80004249096801EB8401497848403F490968B4
:100D900001EB8401897848403C49096801EB8401F2
:100DA000C97880EA01053948006810F824003749FD
:100DB000096801EB8401497880EA0106304601F0B8
:100DC00097FA06463148006810F8240086EA0501C3
:100DD00048402E49096801F824002C48006800EBBF
:100DE000840040782949096801EB8401897880EA08
:100DF0000106304601F07CFA06462448006800EB04
:100E00008400407886EA050148402049096801EBE2
:100E1000840148701D48006800EB840080781B49FD
:100E2000096801EB8401C97880EA0106304601F0C7
:100E30005FFA06461548006800EB8400807886EA71
:100E4000050148401149096801EB840188700F4889
:100E5000006800EB8400C07880EA0706304601F0A5
:100E600047FA06460948006800EB8400C07886EA25
:100E7000050148400549096801EB8401C870601C00
:100E8000C4B2042CFFF674AFBDE8F0810C00002062
:100E9000244909684878234909684979214A126830
:100EA0005170204909684A7A1E4909684A711D49EA
:100EB00009684A7B1B4909684A721A4909684873DC
:100EC00018490968887817490968897A154A1268A3
:100ED0009170144909688872124909688879114922
:100EE00009688A7B0F4909688A710E490968887305
:100EF0000C490968C8780B490968C97B094A126816
:100F0000D17008490968CA7A06490968CA7305494F
:100F10000968CA7903490968CA7202490968C8712F
:100F2000704700000C00002030B504460025FFF794
:100F30008DFE1F48006840F480301D49086000BFE6
:100F40001B480068400C0028FAD04FF48060184914
:100F50004860A01EC4B20846406840EA8440486029
:100F60000846406840F4803048601248006840F00D
:100F70003200104908600E48006840F080700C494B
:100F8000086000BF0A480068400E0028FAD00848F0
:100F9000406840F002000649486005E004484068A7
:100FA000C0F3870505F00305022DF7D130BD000021
:100FB000001002400020024070B5002413E000251C
:100FC0000DE00A49096801EB8501085D00F0AEFA01
:100FD0000649096801EB85010855681CC5B2042D56
:100FE000EFDB601CC4B2042CE9DB70BD0C000020F8
:100FF0001D49098801F0200111B31B49091D098809
:10100000C8B21A49098801F40041C9B917490988C9
:1010100001F4804161B10A2803D00021134A1180F4
:1010200020E01249098841F40041104A118019E07A
:101030000D2806D10D49098841F480410B4A1180E1
:1010400010E00A490988C1F30D01094A50540749C3
:101050000988491C054A118011460988C72901DD04
:101060000021118070470000003801400800002076
:10107000200000200FB4054B10B503A9044A0298C4
:1010800000F0A8F810BC5DF814FB00001115000872
:1010900004000020490050EAC12018BF04204A0D76
:1010A00018BF40F0010040F2FF72B2EB515F08BF81
:1010B00040F00200012808BF052070472DE9F041EB
:1010C0004F1E00EBC7010446D1E9000115461E463C
:1010D00037F006020DD02A463346FFF7C2F97F1ECD
:1010E00004EBC703D3E90023FFF714F937F0060236
:1010F000F1D1022F25D0042F13D0062F18BFBDE841
:10110000F0812A463346FFF7ACF9D4E90A23FFF70A
:1011100001F92A463346FFF7A4F9D4E90823FFF77B
:10112000F9F82A463346FFF79CF9D4E90623FFF77E
:10113000F1F82A463346FFF794F9D4E90423FFF780
:10114000E9F82A463346FFF78CF9D4E90223FFF782
:10115000E1F82A463346FFF784F9D4E90023BDE8D5
:10116000F041FFF7D7B800000022134610460149AE
:10117000FFF72FBB0000F03FFFF7CCB8002213466B
:1011800010461146FFF725BB40F2013200204FF018
:10119000E041FFF78DBB0000024A00201107FFF776
:1011A00087BB000001FDFFFF02E008C8121F08C155
:1011B000002AFAD170477047002001E001C1121FD8
:1011C000002AFBD170470000014908607047000009
:1011D0001C0000202DE9FF4F8DB09B460F460446B2
:1011E000002606E025280BD05A460F999047641C2C
:1011F000761C20780028F5D111B03046BDE8F08F7C
:101200000025A8460122984900E0054314F8013F53
:10121000203B02FA03F00842F7D120782E2817D19C
:1012200014F8010F45F004052A280ED06FF02F02A4
:101230002078A0F1300109290AD808EB880102EBD7
:10124000410100EB0108641CF2E757F8048B641CB1
:1012500020786C280DD004DC4C2812D06A2811D1DB
:1012600004E074280DD07A280CD10AE045F400156A
:1012700007E0617845F48015814202D1641C05F5D0
:101280008015641C2278692A45D008DC002AB3D076
:10129000582A69D0632A10D0642A08D13BE0702A0A
:1012A00067D0732A13D0752A5CD0782A5CD0104698
:1012B0005A460F999047761CD3E017F8040B8DF827
:1012C000000000208DF80100E946012003E057F8F6
:1012D000049B4FF0FF3069074FF0000501D40AE08E
:1012E0006D1C45450DDA8542FADB19F80510002919
:1012F000F6D106E06D1C8542FCDB19F805100029CB
:10130000F8D12E4404E019F8010B5A460F99904782
:101310006D1EF8D2A5E00A200021CDE90801C5F331
:10132000025002280DD001CFC117031E71F1000336
:101330000DDA4FF0000CD0EB0C006CEB01012D230B
:1013400008E0FF1D27F00707F7E80201EDE72B058E
:1013500004D52B238DF8283001233BE0EB0739D04F
:101360002023F7E70A2000E010200021CDE9080142
:1013700007E01020002145F00405CDE908014FF0F9
:101380000808C5F3025002280FD001CF00214FF00A
:10139000000A2B071FD5702A0DD0DDE908C38CF099
:1013A000100C5CEA030C0CD015E0FF1D27F00707BA
:1013B000F7E80201EBE740228DF828204FF0010A00
:1013C0000BE050EA010306D030238DF828308DF869
:1013D000292002239A46582A04D024A20DF120097C
:1013E0000B9209E026A2F9E7DDE90823FFF7FBF8F5
:1013F0000B9B9B5C09F8013D50EA0102F4D1ADEB77
:10140000090020300890680701D44FF001080899BE
:10141000884502DDA8EB010000E0002080460025A1
:1014200006E00AA85A46405D0F9990476D1C761C4D
:101430005545F6DB04E030205A460F999047761C5C
:10144000B8F10001A8F10108F5DC05E019F8010B7D
:101450005A460F999047761C0899481E0890002913
:10146000F4DC641CC5E60000092801003031323389
:1014700034353637383961626364656600000000D0
:1014800030313233343536373839414243444546BA
:10149000000000004FF0E021096921F004014FF045
:1014A000E0221161C21700EB5272C2F3C702074B70
:1014B0001A701946097801EB4102C2EBC1114FF6CF
:1014C000FF7202EAC101024A118070470000002049
:1014D0000200002001460D4A12884A434FF0E023E3
:1014E0005A6100229A6101221A6100BF4FF0E02286
:1014F000106900F001021AB100F48032002AF5D020
:1015000000224FF0E0231A619A6170470200002028
:1015100000BF054A128802F04002002AF9D0C2B288
:10152000014B1B1D1A8070470038014001460148DD
:10153000405C70470423000894B04FF0010A00207B
:1015400010901190129013900C900D900E900F909F
:10155000089009900A900B900920FFF7E5FC4820BD
:10156000FFF798FF4FF41651482000F013FEFFF7E5
:101570004FFBCDE000BF6748008800F40040002822
:10158000F9D06448008800F4004028B1624890F81F
:1015900000B000205F490880BBF16B0F10D0BBF199
:1015A0006E0F14D0BBF1700F03D0BBF1730F06D1D7
:1015B00063E00CA800F0AAFD0CA800F059FEA6E01C
:1015C00010A800F0A3FD10A800F052FE9FE000BF9D
:1015D0005048008800F400400028F9D04FF0000A7D
:1015E0004C48008800F40040002845D0494890F855
:1015F0000090002436E04848005D30380A2805DDB8
:101600004FF0010A45A0FFF735FD2DE0A9F10101DA
:10161000081BFEF79DFF07463A460B46002043494C
:1016200000F098F805460E463B49095DA1F13000EF
:10163000FEF78EFF2A463346CDE90001FEF711FF83
:10164000CDE904015046FEF794FFCDE90201DDE942
:101650000423FEF75FFECDE90601FEF7ABFF8246ED
:10166000601CC4B24C45C6DB00BF514630A0FFF73A
:1016700001FD00202749088049E04FF47A70FFF708
:1016800029FF002440E06420FFF724FF00240CE041
:10169000FEF766FD0546C01705EB10600012A5EBCE
:1016A00000200CA90855601CC4B2102CF0DB22A04D
:1016B000FFF7E0FC0CA800F0DBFD00240CE0FEF7D7
:1016C0004FFD0546C01705EB10600012A5EB00208A
:1016D00010A90855601CC4B2102CF0DB19A0FFF74C
:1016E000C9FC10A800F0C4FD0A20FFF7F3FE08AA09
:1016F00010A90CA8FFF770F914A0FFF7BBFC08A80D
:1017000000F0B6FD601CC4B25445BCD300BF00BF9E
:1017100030E700000800002020000020696E70758E
:1017200074206572726F720D0A0000000000244080
:1017300061616125640D0A00706C61696E74657881
:10174000743A00006B65793A0000000043727970CA
:10175000743A00002DE9F04D16460F4694B01C4631
:1017600021F0004123F00042002814BF4FF0010C8B
:101770004FF0000C0CEB470CFE4B0CEB03054FEA53
:10178000630C65452BD3350018BF012505EB4405D7
:101790001D44F94B9D4222D3F84B52EA060C02D06D
:1017A0009F4205D148B914B000201946BDE8F08D1C
:1017B000002808BF4FF0000C01D04FF0010C0CEBDB
:1017C000470313F5001F0AD8002E14BF4FF0010C79
:1017D0004FF0000C0CEB440313F5001F07D914B0B5
:1017E000324623463946BDE8F04DFFF7C5BCDFF869
:1017F00090834FF0000A002FB8BF424523DAE14B37
:101800009A42A8BF4FF0020A1DDADC4B93421ADC61
:10181000DD4B03EB2253142B08DDC3F1340C26FA05
:101820000CF303FA0CFCB4450DD108E05EB9C3F12A
:10183000140C22FA0CF303FA0CFC944503D103F0C8
:101840000103C3F1020A51EA00031BD1002C19DA8B
:10185000002F18BFBAF1020F02D0BAF1010F07D062
:101860000220FFF7B1FC14B0BDE8F04DFFF77CBCDF
:101870000220FFF7A9FCFFF777FC14B081F00041CC
:10188000BDE8F08D330070D1424525D107F180428B
:1018900012F5801201BF00280020B84914B008BF1B
:1018A000BDE8F08DB548884207DC002CA1BF184682
:1018B000214614B0BDE8F08D07E0002CBFBF1846EC
:1018C00084F0004114B0BDE8F08DB0497944D1E90D
:1018D000000114B0BDE8F08DDFF8A0C262452AD146
:1018E000002C24DA39B1414517D1002804BF00206B
:1018F00002461CD106E040B10220FFF765FCFFF76D
:1019000043FC0A46394600F0D7BA9D4A394614B01E
:10191000002062F31E01BDE8F08D08DA14B03B46EA
:10192000BDE8F04D024600206146FEF752BF14B0FC
:101930003946BDE8F08D414517DAB4F1804F0CD03F
:10194000A4F10053B3F1FF530FD13B1E0DDB14B0D4
:101950001946BDE8F04D00F0F7BB3B4614B0024617
:10196000BDE8F04D1946FEF77CBD050027F00043A9
:101970003AD1E1B1414537D1002F06DD002CA1BF9E
:101980000020414614B0BDE8F08D002F01DD002C91
:101990001FDB002F16DA002C14DBBAF1010F4FF019
:1019A000000014BF76497A4914B0BDE8F08DBAF151
:1019B000020F18BF002F0CD0BAF1010F09D1002F70
:1019C00007DA0BE0002FB8BF002C0DDABAF1010FD7
:1019D00004D0002014B00146BDE8F08D14B0002002
:1019E0004FF00041BDE8F08D4FF0010808EBE77CB7
:1019F000CDF814C05CEA0A0C0DD0DFF898C162453E
:101A00007EDDDFF894C1654B624512DD8B420ADB57
:101A1000002C18DB23E00120FFF7D6FB14B0BDE853
:101A2000F04DFFF7ABBB554A8A4202DC002C0ADCC2
:101A300015E0994202DA002C11DA04E04F4B99428A
:101A400019DD002C0BDD0220FFF7BEFBFFF79CFB2E
:101A50004B4A14B061F31E021146BDE8F08D02201E
:101A6000FFF7B2FBFFF798FB444A14B061F31E0284
:101A70001146BDE8F08D00223946FEF7ECFC074622
:101A80000D466FF00102FEF713FF4FF05532444B45
:101A9000FEF7E4FC3A462B46FEF7E3FC0022414BFE
:101AA000FEF7DCFC80468B463A462B46104619462C
:101AB000FEF7D7FC42465B46FEF7D3FC88460E9005
:101AC0004FF0C042384B38462946FEF7CAFC8346E1
:101AD0000091364A344B41460E98FEF7C2FC8046D0
:101AE0000191334A334B38462946FEF7BAFC424649
:101AF000019BFEF7B0FC0D4602460B460C9000E041
:101B000011E058460099FEF705FC002788465A4622
:101B10003846009BFEF79FFC2B460C9AFEF79EFC76
:101B2000024600F079B90020B1F5801F07DA3522AE
:101B300028461946FEF7BCFE05466FF0340000EB60
:101B40002150A0F2FF300190C1F3130040F07F61FB
:101B500041F04051029118498842D8BF4FF0000B24
:101B600035DD16498142C8BF4FF0010B2FDC4FF025
:101B7000000B25E0FFFF1F00FFFF0F000000F03FFC
:101B80000000F07F0000404301FCFFFFC00D00009B
:101B90000000F0FF0000E0410000F043FFFFEF3FD6
:101BA0005555D53F0000E03F4715F73FFE822B65B6
:101BB00044DF5DF80BAE543E8E9803007AB60B00FE
:101BC0000198401C01900298A0F580100290FF48F7
:101BD0000299784400EBCB000991D0E90023284614
:101BE0000B931292FEF737FC00910A9028460B9B4C
:101BF000129A0999FEF78EFB02460B460020F44923
:101C0000FEF7E7FDCDE90C010B46024600990A9864
:101C1000FEF727FC0690EF48884600277844029993
:101C2000006810904FF0005040EA610000EB8B40DC
:101C300000F5002102910B9B129A1098FEF70BFC05
:101C40002A46099BFEF70AFC3A464346FEF709FC82
:101C50000891129038464146029B109AFEF701FC0B
:101C6000009B0A9AFEF7FAFB089B129AFEF7F3FB19
:101C7000DDE90C23FEF7F5FB0B91069A1290434623
:101C800010461946FEF7EDFB05460246D2480B46C4
:101C90000A9106217844FFF711FA0A9B2A46089117
:101CA000029010461946FEF7DCFB089B029AFEF7ED
:101CB000D8FB05460991434638461946069AFEF771
:101CC00029FB0B9B129AFEF7CCFB2A46099BFEF7D9
:101CD00021FBCDE908013A46434610461946FEF776
:101CE000C0FB0A910022BD4B0090FEF713FBDDE91B
:101CF0000823FEF70FFB0D463A46B84B3846FEF771
:101D0000AAFB0A9B009AFEF7A6FBDDE90823FEF773
:101D1000A5FBCDE908013A462B4610464146FEF7A1
:101D2000A0FB00910A90DDE908014346069AFEF700
:101D300098FB069088462B463A460B991298FEF778
:101D400090FB4346069AFEF7E5FA80460B460246AC
:101D50000D9100990A98FEF7DDFA00200F4605461E
:101D6000009B0A9AFEF777FB42460D9BFEF776FB37
:101D700088460E904FF06042994B28463946FEF750
:101D800070FB02910090974A954B41460E98FEF7E2
:101D900068FB80460391944A944B28463946FEF7E7
:101DA00060FB4246039BFEF7B5FA914A7A4402EB88
:101DB000CB03D3E90023FEF7ADFA0546079101985E
:101DC000FEF7C6FB0C9003912A46079B02990098E8
:101DD000FEF7A0FA874A7A4402EBCB03D3E900234B
:101DE00093460193FEF796FA039B0C9AFEF792FA3C
:101DF000002788463846039B0C9AFEF72CFB5A4670
:101E0000019BFEF728FB029B009AFEF724FB2A4663
:101E1000079BFEF723FB02460020069005986C4DB9
:101E2000AAF10103184301D1734D069000200B461F
:101E3000049030462146FEF714FB82468B4623462B
:101E400030461946049AFEF706FB3A464346FEF72B
:101E500008FB52465B46FEF75DFA06468A463A465E
:101E6000434621460498FEF7FCFA04460F463246E4
:101E70005346FEF74FFA614A8B46914221DBABEBAA
:101E8000020353EA000210D122463B46FEF7E3FA72
:101E9000804603915A4A5B4B30465146FEF73AFA68
:101EA0004246039BFEF71CFD27D20220FFF78CF968
:101EB000FFF76AF90A46294614B062F31E01BDE82D
:101EC000F08D514B2BF000429A4216D34F4A0BEB48
:101ED000020353EA000208D122463B46FEF7BBFA52
:101EE00032465346FEF7FCFC07D80220FFF76CF998
:101EF000FFF752F90A462946DEE72BF00040444935
:101F0000444A01EB20514FF00008824223DA481C7A
:101F10004FF4801121FA00F058443F4AC0F30A51AF
:101F20007A443E4BA1F2FF31CB4020EA0303C0F3D9
:101F3000130040F4801CC1F1140012682CFA00F860
:101F4000BBF1000FB8BFC8F1000820463946FEF7C4
:101F500082FA04460F4622463B4630465146FEF77B
:101F6000D9F94FF0000B5A462D4B58460391FEF716
:101F700078FA00910A902B4A2B4B58460399FEF7AA
:101F800070FA0491029022463B4658460399FEF7A8
:101F900062FA32465346FEF761FA244A244BFEF7B2
:101FA00060FA049B029AFEF7B5F907468A46009B41
:101FB0000A9AFEF7AFF904460E46009B0A9AFEF70E
:101FC0004AFA3A465346FEF749FA33E0320A00002D
:101FD0000000F03F700A0000A00900000000084067
:101FE00009C7EE3FFD033ADCF5015B14E02F3EBE6E
:101FF000780800003E0800000000F0BF000090409C
:10200000FE822B654715973C00CC904000346F3F13
:1020100001FCFFFF0000E03F6C070000FFFF0F0026
:10202000432EE63F396CA80C615C20BEEF39FAFE06
:10203000422EE63F0746224633460F911046194688
:10204000FEF70FFA834602462E488A460B460521C4
:102050007844FFF733F85A465346FEF702FA224611
:102060003346FEF7FBF982468B463A462046314618
:102070000F9BFEF7F6F93A460F9BFEF74BF90F461A
:102080000A9000224FF0804350465946FEF7E3F98C
:102090000391009052465B4620463146FEF7E1F937
:1020A000039B009AFEF795FB3B460A9AFEF7D3F98D
:1020B00022463346FEF7CFF90022134BFEF7CEF946
:1020C0000E46044601EB08510815002810DC424674
:1020D00020463146FEF7ECFBFEF7DCFF042808BF84
:1020E000FFF75AF8424620463146FEF7E1FB044628
:1020F00006980B4614B022462946BDE8F04DFEF77F
:10210000B0B90000140600000000F03F014600BF17
:102110000B4A128802F40042002AF9D0084A1288B9
:1021200002F4004252B1002003E0064A125C0A5455
:10213000401C1028F9DB0022014B1A807047000078
:1021400008000020200000202DE9F04106460F463F
:10215000FEF7F0FB04000D4618BF0120284320F0D5
:102160000040C0F17F6000F1E040C00F0ED0301C95
:1021700018BF0120384320F00040C0F17F6000F11B
:10218000E040C00F04BF0120FFF71EF8204629469B
:10219000BDE8F0812DE9F05F05460E463001FEF7FF
:1021A000D2F981462E4905FB01F0FEF7CCF98246B3
:1021B0004946FEF771F807463846FEF7E7F984B25C
:1021C0002046FEF7C0F983463946FEF730F88246CE
:1021D0004FF08341FEF72EF88146FEF7D7F980468F
:1021E0004FF6FF7000EA041404EB080084B21D48A7
:1021F000806940F004001B4988610846806940F40A
:10220000804088611848006820F47F6016490860A3
:102210000846006840F40B6008601248C06840F44B
:1022200080401049C8600846C06820F48040C860FB
:102230000E480480001D008842F20C0108430B493F
:10224000091D08800846008840F02000088002230D
:10225000252203210846FEF72DFDBDE8F09F000072
:1022600040420F00001002400408014008380140BD
:1022700010B58EB00446E07BA17B627B237BCDE969
:102280000932CDE90B10E07AA17A627A237ACDE99E
:102290000532CDE90710E079A17962792379CDE99A
:1022A0000132CDE90310E0780090A37862782178BC
:1022B00002A0FEF7DFFE0EB010BD0000257820253D
:1022C00078202578202578202578202578202578E5
:1022D000202578202578202578202578202578202D
:1022E00025782025782025782025780D0A00000003
:1022F0000146C80900EBC00000EB400080EA410045
:10230000C0B27047637C777BF26B6FC53001672B7F
:10231000FED7AB76CA82C97DFA5947F0ADD4A2AFD9
:102320009CA472C0B7FD9326363FF7CC34A5E5F1E7
:1023300071D8311504C723C31896059A071280E295
:10234000EB27B27509832C1A1B6E5AA0523BD6B3E9
:1023500029E32F8453D100ED20FCB15B6ACBBE3959
:102360004A4C58CFD0EFAAFB434D338545F9027F45
:10237000503C9FA851A3408F929D38F5BCB6DA21FE
:1023800010FFF3D2CD0C13EC5F974417C4A77E3D2A
:10239000645D197360814FDC222A908846EEB81480
:1023A000DE5E0BDBE0323A0A4906245CC2D3AC6243
:1023B0009195E479E7C8376D8DD54EA96C56F4EA4E
:1023C000657AAE08BA78252E1CA6B4C6E8DD741F5F
:1023D0004BBD8B8A703EB5664803F60E613557B922
:1023E00086C11D9EE1F8981169D98E949B1E87E9DC
:1023F000CE5528DF8CA1890DBFE6426841992D0F8B
:10240000B054BB1652096AD53036A538BF40A39EDA
:1024100081F3D7FB7CE339829B2FFF87348E4344C3
:10242000C4DEE9CB547B9432A6C2233DEE4C950B1F
:1024300042FAC34E082EA16628D924B2765BA2497F
:102440006D8BD12572F8F66486689816D4A45CCC9E
:102450005D65B6926C704850FDEDB9DA5E15465771
:10246000A78D9D8490D8AB008CBCD30AF7E45805A7
:10247000B8B34506D02C1E8FCA3F0F02C1AFBD03B3
:1024800001138A6B3A9111414F67DCEA97F2CFCE84
:10249000F0B4E67396AC7422E7AD3585E2F937E81F
:1024A0001C75DF6E47F11A711D29C5896FB7620E61
:1024B000AA18BE1BFC563E4BC6D279209ADBC0FE42
:1024C00078CD5AF41FDDA8338807C731B1121059EF
:1024D0002780EC5F60517FA919B54A0D2DE57A9FE1
:1024E00093C99CEFA0E03B4DAE2AF5B0C8EBBB3CD6
:1024F00083539961172B047EBA77D626E16914635A
:1025000055210C7D8D01020408102040801B366C83
:10251000D8AB4D9A2F5EBC63C697356AD4B37DFAAB
:10252000EFC5913972E4D3BD61C29F254A943366E9
:10253000CC831D3A74E8CB8D010204081020408042
:102540001B366CD8AB4D9A2F5EBC63C697356AD4E8
:10255000B37DFAEFC5913972E4D3BD61C29F254ABC
:10256000943366CC831D3A74E8CB8D0102040810C5
:102570002040801B366CD8AB4D9A2F5EBC63C6974B
:10258000356AD4B37DFAEFC5913972E4D3BD61C227
:102590009F254A943366CC831D3A74E8CB8D0102A3
:1025A0000408102040801B366CD8AB4D9A2F5EBCBF
:1025B00063C697356AD4B37DFAEFC5913972E4D317
:1025C000BD61C29F254A943366CC831D3A74E8CB23
:1025D0008D01020408102040801B366CD8AB4D9A48
:1025E0002F5EBC63C697356AD4B37DFAEFC59139C7
:1025F00072E4D3BD61C29F254A943366CC831D3AF1
:1026000074E8CB0000000000000000000000F03F74
:10261000000000000000F83F000000000000000083
:102620000000004003B8E23F00000000000000008E
:1026300006D0CF43EBFD4C3E033333333333E33F1C
:10264000FFAB6FDBB66DDB3F4D268F515555D53F48
:1026500001411DA96074D13F65DBC9934A86CD3F16
:10266000EF4E454A287ECA3F3E5555555555C53F04
:1026700093BDBE166CC166BF2CDE25AF6A56113FF6
:10268000F16BD2C541BDBBBED0A4BE726937663EF8
:102690000000000000000000B82600080000002034
:1026A00020000000A8110008D82600082000002003
:1026B00078050000B81100080000000000000000CC
:1026C000000000000000000000000000000000000A
:0826D000000000000000000002
:0400000508000131BD
:00000001FF
